{
  "_format": "hh-sol-artifact-1",
  "contractName": "FairAuction",
  "sourceName": "contracts/FairAuction.sol",
  "abi": [
    {
      "inputs": [
        {
          "internalType": "contract IERC20",
          "name": "projectToken",
          "type": "address"
        },
        {
          "internalType": "contract IERC20",
          "name": "saleToken",
          "type": "address"
        },
        {
          "internalType": "uint256",
          "name": "startTime",
          "type": "uint256"
        },
        {
          "internalType": "uint256",
          "name": "endTime",
          "type": "uint256"
        },
        {
          "internalType": "address",
          "name": "treasury_",
          "type": "address"
        },
        {
          "internalType": "uint256",
          "name": "maxToDistribute",
          "type": "uint256"
        },
        {
          "internalType": "uint256",
          "name": "minToRaise",
          "type": "uint256"
        },
        {
          "internalType": "uint256",
          "name": "maxToRaise",
          "type": "uint256"
        },
        {
          "internalType": "uint256",
          "name": "capPerWallet",
          "type": "uint256"
        }
      ],
      "stateMutability": "nonpayable",
      "type": "constructor"
    },
    {
      "anonymous": false,
      "inputs": [
        {
          "indexed": true,
          "internalType": "address",
          "name": "user",
          "type": "address"
        },
        {
          "indexed": false,
          "internalType": "uint256",
          "name": "amount",
          "type": "uint256"
        }
      ],
      "name": "Buy",
      "type": "event"
    },
    {
      "anonymous": false,
      "inputs": [
        {
          "indexed": true,
          "internalType": "address",
          "name": "user",
          "type": "address"
        },
        {
          "indexed": false,
          "internalType": "uint256",
          "name": "amount",
          "type": "uint256"
        }
      ],
      "name": "Claim",
      "type": "event"
    },
    {
      "anonymous": false,
      "inputs": [
        {
          "indexed": true,
          "internalType": "address",
          "name": "user",
          "type": "address"
        },
        {
          "indexed": false,
          "internalType": "uint256",
          "name": "amount",
          "type": "uint256"
        }
      ],
      "name": "ClaimRefEarnings",
      "type": "event"
    },
    {
      "anonymous": false,
      "inputs": [],
      "name": "DiscountUpdated",
      "type": "event"
    },
    {
      "anonymous": false,
      "inputs": [
        {
          "indexed": false,
          "internalType": "address",
          "name": "token",
          "type": "address"
        },
        {
          "indexed": false,
          "internalType": "uint256",
          "name": "amount",
          "type": "uint256"
        }
      ],
      "name": "EmergencyWithdraw",
      "type": "event"
    },
    {
      "anonymous": false,
      "inputs": [
        {
          "indexed": false,
          "internalType": "address",
          "name": "referrer",
          "type": "address"
        },
        {
          "indexed": false,
          "internalType": "uint256",
          "name": "amount",
          "type": "uint256"
        }
      ],
      "name": "NewRefEarning",
      "type": "event"
    },
    {
      "anonymous": false,
      "inputs": [
        {
          "indexed": true,
          "internalType": "address",
          "name": "previousOwner",
          "type": "address"
        },
        {
          "indexed": true,
          "internalType": "address",
          "name": "newOwner",
          "type": "address"
        }
      ],
      "name": "OwnershipTransferred",
      "type": "event"
    },
    {
      "inputs": [],
      "name": "CAP_PER_WALLET",
      "outputs": [
        {
          "internalType": "uint256",
          "name": "",
          "type": "uint256"
        }
      ],
      "stateMutability": "view",
      "type": "function"
    },
    {
      "inputs": [],
      "name": "END_TIME",
      "outputs": [
        {
          "internalType": "uint256",
          "name": "",
          "type": "uint256"
        }
      ],
      "stateMutability": "view",
      "type": "function"
    },
    {
      "inputs": [],
      "name": "MAX_PROJECT_TOKENS_TO_DISTRIBUTE",
      "outputs": [
        {
          "internalType": "uint256",
          "name": "",
          "type": "uint256"
        }
      ],
      "stateMutability": "view",
      "type": "function"
    },
    {
      "inputs": [],
      "name": "MAX_RAISE_AMOUNT",
      "outputs": [
        {
          "internalType": "uint256",
          "name": "",
          "type": "uint256"
        }
      ],
      "stateMutability": "view",
      "type": "function"
    },
    {
      "inputs": [],
      "name": "MIN_TOTAL_RAISED_FOR_MAX_PROJECT_TOKEN",
      "outputs": [
        {
          "internalType": "uint256",
          "name": "",
          "type": "uint256"
        }
      ],
      "stateMutability": "view",
      "type": "function"
    },
    {
      "inputs": [],
      "name": "PROJECT_TOKEN",
      "outputs": [
        {
          "internalType": "contract IERC20",
          "name": "",
          "type": "address"
        }
      ],
      "stateMutability": "view",
      "type": "function"
    },
    {
      "inputs": [],
      "name": "REFERRAL_SHARE",
      "outputs": [
        {
          "internalType": "uint256",
          "name": "",
          "type": "uint256"
        }
      ],
      "stateMutability": "view",
      "type": "function"
    },
    {
      "inputs": [],
      "name": "SALE_TOKEN",
      "outputs": [
        {
          "internalType": "contract IERC20",
          "name": "",
          "type": "address"
        }
      ],
      "stateMutability": "view",
      "type": "function"
    },
    {
      "inputs": [],
      "name": "START_TIME",
      "outputs": [
        {
          "internalType": "uint256",
          "name": "",
          "type": "uint256"
        }
      ],
      "stateMutability": "view",
      "type": "function"
    },
    {
      "inputs": [],
      "name": "burnUnsoldTokens",
      "outputs": [],
      "stateMutability": "nonpayable",
      "type": "function"
    },
    {
      "inputs": [
        {
          "internalType": "uint256",
          "name": "amount",
          "type": "uint256"
        },
        {
          "internalType": "address",
          "name": "referralAddress",
          "type": "address"
        }
      ],
      "name": "buy",
      "outputs": [],
      "stateMutability": "nonpayable",
      "type": "function"
    },
    {
      "inputs": [
        {
          "internalType": "address",
          "name": "referralAddress",
          "type": "address"
        }
      ],
      "name": "buyFIL",
      "outputs": [],
      "stateMutability": "payable",
      "type": "function"
    },
    {
      "inputs": [],
      "name": "claim",
      "outputs": [],
      "stateMutability": "nonpayable",
      "type": "function"
    },
    {
      "inputs": [
        {
          "internalType": "address",
          "name": "token",
          "type": "address"
        },
        {
          "internalType": "uint256",
          "name": "amount",
          "type": "uint256"
        }
      ],
      "name": "emergencyWithdrawFunds",
      "outputs": [],
      "stateMutability": "nonpayable",
      "type": "function"
    },
    {
      "inputs": [
        {
          "internalType": "address",
          "name": "account",
          "type": "address"
        }
      ],
      "name": "getExpectedClaimAmount",
      "outputs": [
        {
          "internalType": "uint256",
          "name": "",
          "type": "uint256"
        }
      ],
      "stateMutability": "view",
      "type": "function"
    },
    {
      "inputs": [],
      "name": "getRemainingTime",
      "outputs": [
        {
          "internalType": "uint256",
          "name": "",
          "type": "uint256"
        }
      ],
      "stateMutability": "view",
      "type": "function"
    },
    {
      "inputs": [],
      "name": "hasEnded",
      "outputs": [
        {
          "internalType": "bool",
          "name": "",
          "type": "bool"
        }
      ],
      "stateMutability": "view",
      "type": "function"
    },
    {
      "inputs": [],
      "name": "hasStarted",
      "outputs": [
        {
          "internalType": "bool",
          "name": "",
          "type": "bool"
        }
      ],
      "stateMutability": "view",
      "type": "function"
    },
    {
      "inputs": [],
      "name": "owner",
      "outputs": [
        {
          "internalType": "address",
          "name": "",
          "type": "address"
        }
      ],
      "stateMutability": "view",
      "type": "function"
    },
    {
      "inputs": [],
      "name": "renounceOwnership",
      "outputs": [],
      "stateMutability": "nonpayable",
      "type": "function"
    },
    {
      "inputs": [],
      "name": "tokensToDistribute",
      "outputs": [
        {
          "internalType": "uint256",
          "name": "",
          "type": "uint256"
        }
      ],
      "stateMutability": "view",
      "type": "function"
    },
    {
      "inputs": [],
      "name": "totalAllocation",
      "outputs": [
        {
          "internalType": "uint256",
          "name": "",
          "type": "uint256"
        }
      ],
      "stateMutability": "view",
      "type": "function"
    },
    {
      "inputs": [],
      "name": "totalRaised",
      "outputs": [
        {
          "internalType": "uint256",
          "name": "",
          "type": "uint256"
        }
      ],
      "stateMutability": "view",
      "type": "function"
    },
    {
      "inputs": [
        {
          "internalType": "address",
          "name": "newOwner",
          "type": "address"
        }
      ],
      "name": "transferOwnership",
      "outputs": [],
      "stateMutability": "nonpayable",
      "type": "function"
    },
    {
      "inputs": [],
      "name": "treasury",
      "outputs": [
        {
          "internalType": "address",
          "name": "",
          "type": "address"
        }
      ],
      "stateMutability": "view",
      "type": "function"
    },
    {
      "inputs": [],
      "name": "unsoldTokensBurnt",
      "outputs": [
        {
          "internalType": "bool",
          "name": "",
          "type": "bool"
        }
      ],
      "stateMutability": "view",
      "type": "function"
    },
    {
      "inputs": [
        {
          "internalType": "address",
          "name": "",
          "type": "address"
        }
      ],
      "name": "userInfo",
      "outputs": [
        {
          "internalType": "uint256",
          "name": "allocation",
          "type": "uint256"
        },
        {
          "internalType": "uint256",
          "name": "contribution",
          "type": "uint256"
        },
        {
          "internalType": "bool",
          "name": "hasClaimed",
          "type": "bool"
        }
      ],
      "stateMutability": "view",
      "type": "function"
    },
    {
      "inputs": [],
      "name": "wfil",
      "outputs": [
        {
          "internalType": "address",
          "name": "",
          "type": "address"
        }
      ],
      "stateMutability": "view",
      "type": "function"
    }
  ],
  "bytecode": "0x6101a060405260058054610100600160a81b03191674eeeeeeeeeeeeeeeeeeeeeeeeeeeeeeeeeeeeeeee001790553480156200003a57600080fd5b506040516200272d3803806200272d8339810160408190526200005d91620001c5565b62000068336200015c565b60018055858710620000b15760405162461bcd60e51b815260206004820152600d60248201526c696e76616c696420646174657360981b60448201526064015b60405180910390fd5b6001600160a01b038516620000fc5760405162461bcd60e51b815260206004820152601060248201526f696e76616c696420747265617375727960801b6044820152606401620000a8565b6001600160a01b03808a1660805288811660a05260c088905260e087905285166101805261010084905261012083905281620001385760001991505b610140829052806200014957506000195b6101605250620002559650505050505050565b600080546001600160a01b038381166001600160a01b0319831681178455604051919092169283917f8be0079c531659141344cd1fd0a4f28419497f9722a3daafe3b4186f6b6457e09190a35050565b6001600160a01b0381168114620001c257600080fd5b50565b60008060008060008060008060006101208a8c031215620001e557600080fd5b8951620001f281620001ac565b60208b01519099506200020581620001ac565b8098505060408a0151965060608a0151955060808a01516200022781620001ac565b8095505060a08a0151935060c08a0151925060e08a015191506101008a015190509295985092959850929598565b60805160a05160c05160e0516101005161012051610140516101605161018051612380620003ad600039600081816102dc015281816117a801526117d601526000818161062f015261161901526000818161045b01526114fa0152600081816105fb01528181610ac40152610aee015260008181610407015281816106d501528181610b1501528181610b5001528181610c0801528181610f52015261106e01526000818161022e0152818161055a0152818161067f015281816108b201528181610bb201528181610e2a0152818161130f015261133e0152600081816102820152818161050e015281816106530152610b860152600081816104a4015281816107f201528181610d2001528181610de00152818161172901526117860152600081816105a7015281816106f701528181610c2a01528181611041015281816118f6015281816119ce0152611a8e01526123806000f3fe6080604052600436106101b75760003560e01c8063a2fddd6f116100ec578063e165f5c11161008a578063f0686c8011610064578063f0686c8014610595578063f2fde38b146105c9578063fbed31e0146105e9578063fc6177911461061d57600080fd5b8063e165f5c114610530578063ecb70fb71461054a578063efb98bcf1461058057600080fd5b8063b8ac77a4116100c6578063b8ac77a414610492578063c5c4744c146104c6578063d1aa4974146104dc578063ddaa26ad146104fc57600080fd5b8063a2fddd6f14610429578063a828446314610449578063b21b5a211461047d57600080fd5b8063715018a6116101595780638047ea82116101335780638047ea82146103835780638da5cb5b146103b5578063940bb344146103e0578063a1f5f6e7146103f557600080fd5b8063715018a61461033857806379203dc41461034d5780637deb60251461036357600080fd5b806344691f7e1161019557806344691f7e146102735780634e71d92d146102b557806361d027b3146102ca57806367a80efd1461032357600080fd5b80631959a002146101bc57806337ba682d1461021c5780633ac597da1461025e575b600080fd5b3480156101c857600080fd5b506101fa6101d736600461212f565b600260208190526000918252604090912080546001820154919092015460ff1683565b6040805193845260208401929092521515908201526060015b60405180910390f35b34801561022857600080fd5b506102507f000000000000000000000000000000000000000000000000000000000000000081565b604051908152602001610213565b61027161026c36600461212f565b610651565b005b34801561027f57600080fd5b507f00000000000000000000000000000000000000000000000000000000000000004210155b6040519015158152602001610213565b3480156102c157600080fd5b506102716108af565b3480156102d657600080fd5b506102fe7f000000000000000000000000000000000000000000000000000000000000000081565b60405173ffffffffffffffffffffffffffffffffffffffff9091168152602001610213565b34801561032f57600080fd5b50610250610abd565b34801561034457600080fd5b50610271610b72565b34801561035957600080fd5b5061025060045481565b34801561036f57600080fd5b5061027161037e36600461214a565b610b84565b34801561038f57600080fd5b506005546102fe90610100900473ffffffffffffffffffffffffffffffffffffffff1681565b3480156103c157600080fd5b5060005473ffffffffffffffffffffffffffffffffffffffff166102fe565b3480156103ec57600080fd5b50610271610e1f565b34801561040157600080fd5b506102507f000000000000000000000000000000000000000000000000000000000000000081565b34801561043557600080fd5b50610271610444366004612176565b611127565b34801561045557600080fd5b506102507f000000000000000000000000000000000000000000000000000000000000000081565b34801561048957600080fd5b50610250600381565b34801561049e57600080fd5b506102fe7f000000000000000000000000000000000000000000000000000000000000000081565b3480156104d257600080fd5b5061025060035481565b3480156104e857600080fd5b506102506104f736600461212f565b611283565b34801561050857600080fd5b506102507f000000000000000000000000000000000000000000000000000000000000000081565b34801561053c57600080fd5b506005546102a59060ff1681565b34801561055657600080fd5b50427f000000000000000000000000000000000000000000000000000000000000000011156102a5565b34801561058c57600080fd5b5061025061130a565b3480156105a157600080fd5b506102fe7f000000000000000000000000000000000000000000000000000000000000000081565b3480156105d557600080fd5b506102716105e436600461212f565b611363565b3480156105f557600080fd5b506102507f000000000000000000000000000000000000000000000000000000000000000081565b34801561062957600080fd5b506102507f000000000000000000000000000000000000000000000000000000000000000081565b7f000000000000000000000000000000000000000000000000000000000000000042101580156106a05750427f0000000000000000000000000000000000000000000000000000000000000000115b801561077a57506040517f70a082310000000000000000000000000000000000000000000000000000000081523060048201527f0000000000000000000000000000000000000000000000000000000000000000907f000000000000000000000000000000000000000000000000000000000000000073ffffffffffffffffffffffffffffffffffffffff16906370a0823190602401602060405180830381865afa158015610753573d6000803e3d6000fd5b505050506040513d601f19601f8201168201806040525081019061077791906121a0565b10155b6107e5576040517f08c379a000000000000000000000000000000000000000000000000000000000815260206004820152601c60248201527f69734163746976653a2073616c65206973206e6f74206163746976650000000060448201526064015b60405180910390fd5b6107ed611417565b6005547f000000000000000000000000000000000000000000000000000000000000000073ffffffffffffffffffffffffffffffffffffffff9081166101009092041614610897576040517f08c379a000000000000000000000000000000000000000000000000000000000815260206004820152600c60248201527f6e6f6e2066696c2073616c65000000000000000000000000000000000000000060448201526064016107dc565b346108a2818361148b565b506108ac60018055565b50565b427f00000000000000000000000000000000000000000000000000000000000000001115610939576040517f08c379a000000000000000000000000000000000000000000000000000000000815260206004820152601f60248201527f6973436c61696d61626c653a2073616c6520686173206e6f7420656e6465640060448201526064016107dc565b610941611417565b336000908152600260205260409020600454158015906109615750805415155b6109c7576040517f08c379a000000000000000000000000000000000000000000000000000000000815260206004820152601660248201527f636c61696d3a207a65726f20616c6c6f636174696f6e0000000000000000000060448201526064016107dc565b600281015460ff1615610a36576040517f08c379a000000000000000000000000000000000000000000000000000000000815260206004820152601660248201527f636c61696d3a20616c726561647920636c61696d65640000000000000000000060448201526064016107dc565b6002810180547fffffffffffffffffffffffffffffffffffffffffffffffffffffffffffffff001660011790556000610a6e33611283565b60405181815290915033907f47cee97cb7acd717b3c0aa1435d004cd5b3c8c57d70dbceb4e4458bbd60e39d49060200160405180910390a2610ab033826118c5565b5050610abb60018055565b565b60006003547f00000000000000000000000000000000000000000000000000000000000000001115610b4d57610b487f0000000000000000000000000000000000000000000000000000000000000000610b426003547f0000000000000000000000000000000000000000000000000000000000000000611b9190919063ffffffff16565b90611b9d565b905090565b507f000000000000000000000000000000000000000000000000000000000000000090565b610b7a611ba9565b610abb6000611c2a565b7f00000000000000000000000000000000000000000000000000000000000000004210158015610bd35750427f0000000000000000000000000000000000000000000000000000000000000000115b8015610cad57506040517f70a082310000000000000000000000000000000000000000000000000000000081523060048201527f0000000000000000000000000000000000000000000000000000000000000000907f000000000000000000000000000000000000000000000000000000000000000073ffffffffffffffffffffffffffffffffffffffff16906370a0823190602401602060405180830381865afa158015610c86573d6000803e3d6000fd5b505050506040513d601f19601f82011682018060405250810190610caa91906121a0565b10155b610d13576040517f08c379a000000000000000000000000000000000000000000000000000000000815260206004820152601c60248201527f69734163746976653a2073616c65206973206e6f74206163746976650000000060448201526064016107dc565b610d1b611417565b6005547f000000000000000000000000000000000000000000000000000000000000000073ffffffffffffffffffffffffffffffffffffffff908116610100909204161415610dc6576040517f08c379a000000000000000000000000000000000000000000000000000000000815260206004820152601660248201527f746f6b656e206973206e6f7420737570706f727465640000000000000000000060448201526064016107dc565b610e0873ffffffffffffffffffffffffffffffffffffffff7f000000000000000000000000000000000000000000000000000000000000000016333085611c9f565b610e12828261148b565b610e1b60018055565b5050565b610e27611ba9565b427f00000000000000000000000000000000000000000000000000000000000000001115610ed7576040517f08c379a000000000000000000000000000000000000000000000000000000000815260206004820152602760248201527f6275726e556e736f6c64546f6b656e733a2070726573616c6520686173206e6f60448201527f7420656e6465640000000000000000000000000000000000000000000000000060648201526084016107dc565b60055460ff1615610f44576040517f08c379a000000000000000000000000000000000000000000000000000000000815260206004820152601f60248201527f6275726e556e736f6c64546f6b656e733a20616c7265616479206275726e740060448201526064016107dc565b6000610f4e610abd565b90507f00000000000000000000000000000000000000000000000000000000000000008110610fff576040517f08c379a000000000000000000000000000000000000000000000000000000000815260206004820152602260248201527f6275726e556e736f6c64546f6b656e733a206e6f20746f6b656e20746f20627560448201527f726e00000000000000000000000000000000000000000000000000000000000060648201526084016107dc565b600580547fffffffffffffffffffffffffffffffffffffffffffffffffffffffffffffff0016600117905573ffffffffffffffffffffffffffffffffffffffff7f00000000000000000000000000000000000000000000000000000000000000001663a9059cbb61dead6110937f000000000000000000000000000000000000000000000000000000000000000085611d7b565b6040517fffffffff0000000000000000000000000000000000000000000000000000000060e085901b16815273ffffffffffffffffffffffffffffffffffffffff909216600483015260248201526044016020604051808303816000875af1158015611103573d6000803e3d6000fd5b505050506040513d601f19601f82011682018060405250810190610e1b91906121b9565b61112f611ba9565b60055473ffffffffffffffffffffffffffffffffffffffff838116610100909204161461117c5761117773ffffffffffffffffffffffffffffffffffffffff83163383611d87565b611230565b604051600090339083908381818185875af1925050503d80600081146111be576040519150601f19603f3d011682016040523d82523d6000602084013e6111c3565b606091505b505090508061122e576040517f08c379a000000000000000000000000000000000000000000000000000000000815260206004820152600f60248201527f7472616e73666572206661696c6564000000000000000000000000000000000060448201526064016107dc565b505b6040805173ffffffffffffffffffffffffffffffffffffffff84168152602081018390527f5fafa99d0643513820be26656b45130b01e1c03062e1266bf36f88cbd3bd9695910160405180910390a15050565b60006004546000141561129857506000919050565b73ffffffffffffffffffffffffffffffffffffffff82166000908152600260208181526040928390208351606081018552815481526001820154928101929092529091015460ff1615159181019190915260045461130390610b426112fb610abd565b845190611b91565b9392505050565b6000427f0000000000000000000000000000000000000000000000000000000000000000116113395750600090565b610b487f000000000000000000000000000000000000000000000000000000000000000042611d7b565b61136b611ba9565b73ffffffffffffffffffffffffffffffffffffffff811661140e576040517f08c379a000000000000000000000000000000000000000000000000000000000815260206004820152602660248201527f4f776e61626c653a206e6577206f776e657220697320746865207a65726f206160448201527f646472657373000000000000000000000000000000000000000000000000000060648201526084016107dc565b6108ac81611c2a565b60026001541415611484576040517f08c379a000000000000000000000000000000000000000000000000000000000815260206004820152601f60248201527f5265656e7472616e637947756172643a207265656e7472616e742063616c6c0060448201526064016107dc565b6002600155565b600082116114f5576040517f08c379a000000000000000000000000000000000000000000000000000000000815260206004820152601060248201527f6275793a207a65726f20616d6f756e740000000000000000000000000000000060448201526064016107dc565b6003547f0000000000000000000000000000000000000000000000000000000000000000906115249084611de2565b111561158c576040517f08c379a000000000000000000000000000000000000000000000000000000000815260206004820152601460248201527f6275793a2068617264636170207265616368656400000000000000000000000060448201526064016107dc565b333b15801561159a5750323b155b611600576040517f08c379a000000000000000000000000000000000000000000000000000000000815260206004820152600960248201527f464f5242494444454e000000000000000000000000000000000000000000000060448201526064016107dc565b33600090815260026020526040902060018101548391907f0000000000000000000000000000000000000000000000000000000000000000906116439084611de2565b11156116ab576040517f08c379a000000000000000000000000000000000000000000000000000000000815260206004820152601760248201527f6275793a2077616c6c657420636170207265616368656400000000000000000060448201526064016107dc565b600181015484906116bc9082611de2565b60018301556003546116ce9086611de2565b60035581546116dd9082611de2565b82556004546116ec9082611de2565b60045560405185815233907fe3d4187f6ca4248660cc0ac8b8056515bac4a8132be2eca31d6d0cc170722a7e9060200160405180910390a26005547f000000000000000000000000000000000000000000000000000000000000000073ffffffffffffffffffffffffffffffffffffffff90811661010090920416146117d2576117cd73ffffffffffffffffffffffffffffffffffffffff7f0000000000000000000000000000000000000000000000000000000000000000167f000000000000000000000000000000000000000000000000000000000000000085611d87565b6118be565b60007f000000000000000000000000000000000000000000000000000000000000000073ffffffffffffffffffffffffffffffffffffffff168460405160006040518083038185875af1925050503d806000811461184c576040519150601f19603f3d011682016040523d82523d6000602084013e611851565b606091505b50509050806118bc576040517f08c379a000000000000000000000000000000000000000000000000000000000815260206004820152600f60248201527f7472616e73666572206661696c6564000000000000000000000000000000000060448201526064016107dc565b505b5050505050565b6040517f70a082310000000000000000000000000000000000000000000000000000000081523060048201526000907f000000000000000000000000000000000000000000000000000000000000000073ffffffffffffffffffffffffffffffffffffffff16906370a0823190602401602060405180830381865afa158015611952573d6000803e3d6000fd5b505050506040513d601f19601f8201168201806040525081019061197691906121a0565b9050600081831115611a42576040517fa9059cbb00000000000000000000000000000000000000000000000000000000815273ffffffffffffffffffffffffffffffffffffffff8581166004830152602482018490527f0000000000000000000000000000000000000000000000000000000000000000169063a9059cbb906044016020604051808303816000875af1158015611a17573d6000803e3d6000fd5b505050506040513d601f19601f82011682018060405250810190611a3b91906121b9565b9050611afe565b6040517fa9059cbb00000000000000000000000000000000000000000000000000000000815273ffffffffffffffffffffffffffffffffffffffff8581166004830152602482018590527f0000000000000000000000000000000000000000000000000000000000000000169063a9059cbb906044016020604051808303816000875af1158015611ad7573d6000803e3d6000fd5b505050506040513d601f19601f82011682018060405250810190611afb91906121b9565b90505b80611b8b576040517f08c379a000000000000000000000000000000000000000000000000000000000815260206004820152602260248201527f73616665436c61696d5472616e736665723a205472616e73666572206661696c60448201527f656400000000000000000000000000000000000000000000000000000000000060648201526084016107dc565b50505050565b6000611303828461220a565b60006113038284612247565b60005473ffffffffffffffffffffffffffffffffffffffff163314610abb576040517f08c379a000000000000000000000000000000000000000000000000000000000815260206004820181905260248201527f4f776e61626c653a2063616c6c6572206973206e6f7420746865206f776e657260448201526064016107dc565b6000805473ffffffffffffffffffffffffffffffffffffffff8381167fffffffffffffffffffffffff0000000000000000000000000000000000000000831681178455604051919092169283917f8be0079c531659141344cd1fd0a4f28419497f9722a3daafe3b4186f6b6457e09190a35050565b60405173ffffffffffffffffffffffffffffffffffffffff80851660248301528316604482015260648101829052611b8b9085907f23b872dd00000000000000000000000000000000000000000000000000000000906084015b604080517fffffffffffffffffffffffffffffffffffffffffffffffffffffffffffffffe08184030181529190526020810180517bffffffffffffffffffffffffffffffffffffffffffffffffffffffff167fffffffff0000000000000000000000000000000000000000000000000000000090931692909217909152611dee565b60006113038284612282565b60405173ffffffffffffffffffffffffffffffffffffffff8316602482015260448101829052611ddd9084907fa9059cbb0000000000000000000000000000000000000000000000000000000090606401611cf9565b505050565b60006113038284612299565b6000611e50826040518060400160405280602081526020017f5361666545524332303a206c6f772d6c6576656c2063616c6c206661696c65648152508573ffffffffffffffffffffffffffffffffffffffff16611efa9092919063ffffffff16565b805190915015611ddd5780806020019051810190611e6e91906121b9565b611ddd576040517f08c379a000000000000000000000000000000000000000000000000000000000815260206004820152602a60248201527f5361666545524332303a204552433230206f7065726174696f6e20646964206e60448201527f6f7420737563636565640000000000000000000000000000000000000000000060648201526084016107dc565b6060611f098484600085611f11565b949350505050565b606082471015611fa3576040517f08c379a000000000000000000000000000000000000000000000000000000000815260206004820152602660248201527f416464726573733a20696e73756666696369656e742062616c616e636520666f60448201527f722063616c6c000000000000000000000000000000000000000000000000000060648201526084016107dc565b6000808673ffffffffffffffffffffffffffffffffffffffff168587604051611fcc91906122dd565b60006040518083038185875af1925050503d8060008114612009576040519150601f19603f3d011682016040523d82523d6000602084013e61200e565b606091505b509150915061201f8783838761202a565b979650505050505050565b606083156120bd5782516120b65773ffffffffffffffffffffffffffffffffffffffff85163b6120b6576040517f08c379a000000000000000000000000000000000000000000000000000000000815260206004820152601d60248201527f416464726573733a2063616c6c20746f206e6f6e2d636f6e747261637400000060448201526064016107dc565b5081611f09565b611f0983838151156120d25781518083602001fd5b806040517f08c379a00000000000000000000000000000000000000000000000000000000081526004016107dc91906122f9565b803573ffffffffffffffffffffffffffffffffffffffff8116811461212a57600080fd5b919050565b60006020828403121561214157600080fd5b61130382612106565b6000806040838503121561215d57600080fd5b8235915061216d60208401612106565b90509250929050565b6000806040838503121561218957600080fd5b61219283612106565b946020939093013593505050565b6000602082840312156121b257600080fd5b5051919050565b6000602082840312156121cb57600080fd5b8151801515811461130357600080fd5b7f4e487b7100000000000000000000000000000000000000000000000000000000600052601160045260246000fd5b6000817fffffffffffffffffffffffffffffffffffffffffffffffffffffffffffffffff0483118215151615612242576122426121db565b500290565b60008261227d577f4e487b7100000000000000000000000000000000000000000000000000000000600052601260045260246000fd5b500490565b600082821015612294576122946121db565b500390565b600082198211156122ac576122ac6121db565b500190565b60005b838110156122cc5781810151838201526020016122b4565b83811115611b8b5750506000910152565b600082516122ef8184602087016122b1565b9190910192915050565b60208152600082518060208401526123188160408501602087016122b1565b601f017fffffffffffffffffffffffffffffffffffffffffffffffffffffffffffffffe016919091016040019291505056fea2646970667358221220dbd8f47beecac66c6249c5ec78a914dc81815d0c259ecc8e6756450895f41ad464736f6c634300080c0033",
  "linkReferences": {},
  "deployedLinkReferences": {}
}